:020000040800F2
:10000000C007002045010008971A0008991A000847
:100010009D1A0008A11A0008A51A00080000000097
:10002000000000000000000000000000A91A000805
:10003000AB1A000800000000AD1A0008AF1A000853
:100040005F0100085F0100085F0100085F01000810
:100050005F0100085F010008452F0008272F0008F6
:100060005F0100085F0100085F0100085F010008F0
:100070005F0100085F0100085F0100085F010008E0
:100080005F0100085F0100085F0100085F010008D0
:100090005F0100085F0100085F0100085F010008C0
:1000A0005F0100085F0100085F0100085F010008B0
:1000B0005F010008F72F00085F0100085F010008DA
:1000C0005F0100085F0100085F0100085F01000890
:1000D0005F0100085F0100085F0100085F01000880
:1000E000692F00085F0100085F0100085F01000838
:1000F0005F0100085F0100085F0100085F01000860
:100100005F0100085F0100085F0100085F0100084F
:100110005F0100085F0100085F0100085F0100083F
:100120005F0100085F0100085F0100085F0100082F
:10013000DFF80CD003F038FA004800475B1A0008DB
:10014000C00700200648804706480047FEE7FEE754
:10015000FEE7FEE7FEE7FEE7FEE7FEE7FEE7FEE777
:1001600047020008310100080CB500200190009002
:100170006C48006840F480306A49086000BF6948F4
:10018000006800F4003000900198401C0190009835
:1001900018B90198B0F5A06FF1D16248006800F479
:1001A000003010B10120009001E000200090009884
:1001B000012843D15C48006840F010005A490860AB
:1001C0000846006820F0030008600846006840F018
:1001D0000200086053484068524948600846406839
:1001E00048600846406840F48060486008464068BF
:1001F00020F47C1048600846406840F4E8104860ED
:100200000846006840F08070086000BF45480068FC
:1002100000F000700028F9D04248406820F0030048
:10022000404948600846406840F00200486000BF0E
:100230003C48406800F00C000828F9D10CBD10B50E
:10024000FFF792FF10BD10B53648006840F001007E
:1002500034490860084640683449084031494860DC
:1002600008460068324908402E4908600846006880
:1002700020F4802008600846406820F4FE004860B2
:100280004FF41F008860FFF7DAFF4FF00060294944
:10029000086010BD10B5002100200022214B5B68D2
:1002A00003F00C0121B1042906D0082928D107E068
:1002B000214B224C236027E01F4B204C236023E07E
:1002C000184B5B6803F47010164B5B6803F48032C4
:1002D000022303EB904022B9194B4343174C236090
:1002E0000DE0104B5B6803F4003323B1144B434320
:1002F000124C236003E0104B4343104C236003E097
:100300000D4B0E4C236000BF00BF064B5B68C3F370
:1003100003130C4CE15C094B1B68CB40074C23607A
:1003200010BD000000100240002002400000FFF855
:10033000FFFFF6FE08ED00E000127A00000000204A
:1003400000093D000400002031490143314A116099
:10035000704770B5002100230F22C47804B32D4CE0
:10036000246804F4E064C4F5E064210AC1F10403E4
:10037000CA40447804FA03F1847814402143090107
:10038000254C0678A155047804F01F050124AC40E3
:1003900005786D11AD0005F1E025C5F8004109E0D3
:1003A000047804F01F050124AC401C4D067876113A
:1003B00045F8264070BD1A4A0A400243154B1B1FE0
:1003C0001A60704739B1134A121D12680243114B6B
:1003D0001B1D1A6006E00F4A121D126882430D4B66
:1003E0001B1D1A607047042808D14FF0E0210969ED
:1003F00041F004014FF0E022116107E04FF0E021ED
:10040000096921F004014FF0E022116170470000FA
:100410000000FA050CED00E000E400E080E100E0FF
:1004200080FFFF1F002044490860091D0860091D66
:100430000860091D086041483F4914310860704751
:1004400000213D498279002A3AD00A4612680368A1
:100450009A430B461A600A1D126803689A430B1DE3
:100460001A60027911440A6803681A430A60324A22
:100470000832126803689A432F4B08331A601A1D1A
:10048000126803689A432C4B0C331A604279102A85
:100490000ED11A1F126803681A43274B08331A60DB
:1004A0001A1D126803681A43234B0C331A600DE0BF
:1004B0002149427911440A6803681A430A6005E039
:1004C000027911440A6803689A430A607047002160
:1004D000016001710C214171002181717047164941
:1004E000103109680143144A103211607047014607
:1004F0000020114A143212680A400AB1012000E0BB
:10050000002070470C4914310860704701460020F4
:100510000022094B1B6803EA0102074B14331B68D6
:100520000B4013B10AB1012000E0002070470249DE
:10053000143108607047000000040140FFFF0F0005
:1005400010B50446CC48844208D10121042000F0B3
:100550002DFB0021042000F029FB46E0C74884421F
:1005600008D10121082000F021FB0021082000F023
:100570001DFB3AE0C248844208D10121102000F05E
:1005800015FB0021102000F011FB2EE0BD48844235
:1005900008D10121202000F009FB0021202000F0DB
:1005A00005FB22E0B848844208D10121402000F038
:1005B000FDFA0021402000F0F9FA16E0B348844229
:1005C00008D10121802000F0F1FA0021802000F004
:1005D000EDFA0AE0AE48844207D10121801500F00F
:1005E000E5FA0021A01500F0E1FA10BD10B50121D7
:1005F000084600F0DBFA0021012000F0D7FA10BD18
:100600002DE9F041024600250026002000230024A9
:10061000002791F803C00CF00F0591F803C00CF00F
:10062000100CBCF1000F03D091F802C04CEA050594
:1006300091F800C0BCF1000F31D0146800202BE00D
:100640004FF0010C0CFA00F3B1F800C00CEA0306FD
:100650009E4220D183004FF00F0C0CFA03F7BC43ED
:1006600005FA03FC4CEA040491F803C0BCF1280F1E
:1006700006D14FF0010C0CFA00FCC2F814C00AE0DD
:1006800091F803C0BCF1480F05D14FF0010C0CFAF2
:1006900000FCC2F810C0401C0828D1D31460B1F887
:1006A00000C0BCF1FF0F34DD546800202EE000F1E3
:1006B000080C4FF0010808FA0CF3B1F800C00CEA7E
:1006C00003069E4221D183004FF00F0C0CFA03F772
:1006D000BC4305FA03FC4CEA040491F803C0BCF1E6
:1006E000280F05D100F1080C08FA0CF8C2F81480A4
:1006F00091F803C0BCF1480F07D100F1080C4FF08E
:10070000010808FA0CF8C2F81080401C0828CED363
:100710005460BDE8F0814FF6FF71018002218170C5
:100720000421C17070470246002093680B400BB152
:10073000012000E0002070470146886880B27047C1
:1007400002460020D3680B400BB1012000E00020DE
:1007500070470146C86880B27047016170474161C7
:1007600070470AB1016100E041617047C1607047A4
:100770004FF480320A4382618161826182698269B9
:10078000704702460020434B18684FF680731840AC
:1007900040EA021008433F4B186070473E49C86169
:1007A0007047F0B50A46002300240021002500F020
:1007B0000046B6F1004F02D1364EF16901E0354EE8
:1007C0007168C0F3034583B200F44016B6F5401FCC
:1007D00008D121F070612F4E766826F070662D4F9B
:1007E0007E6012E000F48016B6F5801F06D1032665
:1007F00006FA05F4A14341F0706106E0460D3601AA
:1008000003FA06F6B14341F0706122B1460D36019C
:1008100003FA06F6314300F00046B6F1004F02D16C
:100820001C4EF16101E01B4E7160F0BD30B500223D
:100830008B071C0F0F2303FA04F2164B08338C109E
:1008400053F824309343134C08348D1044F825306A
:1008500023468C1053F824308C07240F00FA04F43C
:1008600023430C4C08348D1044F8253030BD0A4920
:10087000DC3108607047000000080140000C0140B6
:10088000001001400014014000180140001C01400C
:10089000002001400000014000002042DF480068C5
:1008A00040F00100DD49086008464068DC49084026
:1008B000DA49486008460068DA490840D7490860C4
:1008C0000846006820F4802008600846406820F44C
:1008D000FE0048604FF41F0088607047CF490968E8
:1008E00021F48031CD4A11601146096821F480213C
:1008F0001160B0F5803F03D0B0F5802F0ED106E037
:10090000C649096841F48031C44A116007E0C3490F
:10091000096841F4A021C14A116000E000BF00BF96
:10092000704710B501460022002300204A11012A19
:1009300002D1BA4C236806E0022A02D1B74C236ADE
:1009400001E0B64C636A01F01F02012494401C4090
:100950000CB1012000E0002010BD38B5002000904F
:100960000024002500BF3120FFF7DBFF054600987B
:10097000401C00900098B0F5A06F01D0002DF2D07F
:100980003120FFF7CEFF08B1012400E0002420460B
:1009900038BD01460020A14A106820F0F80040EA66
:1009A000C10010607047A0490860704702460020EF
:1009B0009A4B586820F47C1042EA01031843974B85
:1009C0005860704798490866704701460020934A6E
:1009D000506820F003000843506070478F4840681B
:1009E00000F00C007047014600208C4A506820F04F
:1009F000F00008435060704701460020874A506865
:100A000020F4E06008435060704701460020834AAC
:100A1000506820F4605040EAC1005060704729B12E
:100A20007E4A527A02437D4B5A7204E07B4A527AE4
:100A300082437A4B5A7270477B49D83108607047BD
:100A400001460020754A506820F440400843506039
:100A500070470021714A20321170704A82F82010CC
:100A6000012802D004280AD104E001216B4A203277
:100A7000117005E00521694A2032117000E000BFC5
:100A800000BF70476949086070476449096A0143BB
:100A9000624A11627047654944390860704730B551
:100AA00000210022002400235C4D6D6805F00C013C
:100AB00021B1042905D0082923D105E05C4D05604A
:100AC00022E05B4D05601FE0544D6D6805F4701227
:100AD000524D6D6805F48034022505EB92421CB935
:100AE000544D554305600BE04C4D6D6805F40035E1
:100AF0001DB1504D5543056002E04D4D5543056015
:100B000002E04B4D056000BF00BF444D6D6805F02D
:100B1000F0010909484D6B5C0568DD4045603F4DBB
:100B20006D6805F4E061090A434D6B5C4568DD4082
:100B300085603A4D6D6805F46051C90A3E4D6B5CA5
:100B40004568DD40C560354D6D6805F44041890B51
:100B50003A4D6B5CC568B5FBF3F5056130BD29B155
:100B60002E4A526902432D4B5A6104E02B4A5269C6
:100B700082432A4B5A61704729B1284A926902433D
:100B8000264B9A6104E0254A92698243234B9A617D
:100B9000704729B1214AD2690243204BDA6104E04F
:100BA0001E4AD26982431D4BDA61704729B11B4A44
:100BB000D2680243194BDA6004E0184AD2688243D3
:100BC000164BDA60704729B1144A12690243134B7D
:100BD0001A6104E0114A12698243104B1A6170478E
:100BE00012494039086070470F49C86470470B4983
:100BF000C87170470948406A40F0807007494862F0
:100C0000704701460020054A92680A400AB1012057
:100C100000E00020704701498872704700100240D0
:100C20000000FFF8FFFFF6FE00004242800442424F
:100C300000127A0000093D0014000020240000206A
:100C400010B50446FE48844208D10121C014FFF7C4
:100C5000ADFF0021E014FFF7A9FFC4E0B4F1804F1D
:100C600008D101210846FFF7AEFF00210120FFF760
:100C7000AAFFB8E0F348844208D101210220FFF71F
:100C8000A2FF00210220FFF79EFFACE0EE48844265
:100C900008D101210420FFF796FF00210420FFF76F
:100CA00092FFA0E0E948844208D101210820FFF723
:100CB0008AFF00210820FFF786FF94E0E448844281
:100CC00008D101211020FFF77EFF00211020FFF73F
:100CD0007AFF88E0DF48844208D101212020FFF715
:100CE00072FF00212020FFF76EFF7CE0DA4884428B
:100CF00008D101214014FFF759FF00216014FFF7CC
:100D000055FF70E0D548844209D10121C804FFF79E
:100D10004DFF00214FF40020FFF748FF63E0D0486B
:100D2000844209D101210805FFF740FF00214FF45B
:100D30008010FFF73BFF56E0CA48844209D10121E9
:100D40004805FFF733FF00214FF40010FFF72EFF97
:100D500049E0C548844208D101214020FFF733FF14
:100D600000214020FFF72FFF3DE0C048844208D11A
:100D700001218020FFF727FF00218020FFF723FFBC
:100D800031E0BB48844208D101218015FFF71BFFE9
:100D90000021A015FFF717FF25E0B648844209D1CE
:100DA00001210804FFF702FF00214FF48030FFF714
:100DB000FDFE18E0B048844209D101214804FFF744
:100DC000F5FE00214FF40030FFF7F0FE0BE0AB48DA
:100DD000844208D101218804FFF7E8FE00214FF486
:100DE0008020FFF7E3FE10BD00220288944B98425A
:100DF0000ED0994B98420BD0B0F1804F08D0914B58
:100E0000984205D0904B984202D0904B984204D122
:100E10004FF68F731A404B881A438D4B984207D078
:100E20008C4B984204D04FF6FF431A40CB881A43AC
:100E300002808B8883850B880385814B98420BD079
:100E4000854B984208D08B4B984205D08A4B9842EC
:100E500002D08A4B984201D10B7A03860123838208
:100E6000704770B5002400220023058C4FF6FE76F3
:100E700035400584028C8388048B4FF68F752C4097
:100E8000B51E2C400D882C43751E2A400D892A431F
:100E90004D882A436A4DA8420BD06F4DA84208D016
:100EA000744DA84205D0744DA84202D0734DA8429B
:100EB00013D14FF6F7752A404D892A434FF6FB753B
:100EC0002A408D882A434FF6FF652B404FF6FF5589
:100ED0002B408D892B43CD892B4383800483CD8880
:100EE0008586028470BD70B5002400220023058C25
:100EF0004FF6EF7635400584028C8388048B48F6E4
:100F0000FF752C404FF6FF452C400D884FF6FF76BD
:100F100006EA05252C434FF6DF752A400D8906EABF
:100F200005152A434D8806EA05152A43444DA84273
:100F300002D0494DA8421DD14FF67F752A404D89F8
:100F40004FF6FF7606EA05152A434FF6BF752A408D
:100F50008D8806EA05152A434FF6FF352B404FF2E0
:100F6000FF752B408D8906EA85052B43CD8906EA5E
:100F700085052B4383800483CD880587028470BD5B
:100F800070B5002400220023058C4FF6FF66354023
:100F90000584028C8388848B4FF68F752C404FF626
:100FA000FC752C400D882C434FF6FF552A400D89C7
:100FB0004FF6FF7606EA05252A434D8806EA052501
:100FC0002A431F4DA84202D0234DA8421DD14FF203
:100FD000FF752A404D894FF6FF7606EA05252A431C
:100FE0004FF6FF352A408D8806EA05252A434EF63E
:100FF000FF752B404DF6FF752B408D8906EA0515D0
:101000002B43CD8906EA05152B4383808483CD8845
:101010008587028470BD70B5002200230024058CF2
:101020004EF6FF7635400584038C8488828B48F623
:10103000FF752A404FF6FF452A400D8820E000004A
:10104000002C01400004004000080040000C00405B
:10105000001000400014004000340140004C0140EA
:10106000005001400054014000180040001C0040A6
:101070000020004000400140004401400048014081
:101080004FF6FF7606EA05252A434DF6FF752B40FD
:101090000D8906EA05352B434D8806EA05352B43B5
:1010A000FA4DA84202D0FA4DA84208D14BF6FF757E
:1010B0002C408D894FF6FF7606EA85152C438480F7
:1010C0008283CD88A0F84050038470BD828B4FF29C
:1010D000FF331A408283828B4FF6FF7303EA0123AA
:1010E0001A4382837047F0B50C4615460022002152
:1010F0000026078C4EF6FF7C07EA0C070784828BDC
:10110000018C4FF6FF7707EA043640F6FF473A4076
:101110004FF6FF7707EA05273A434FF6FF7707EACE
:1011200003373A43D94FB8420ED0D94FB8420BD00B
:10113000B0F1804F08D0D74FB84205D0D64FB84253
:1011400002D0D64FB84206D14DF6FF77394046F46B
:101150008057394305E047F6FF57394044F480573C
:10116000394382830184F0BD828B4FF6F3731A40BA
:101170008283828B0A4382837047F0B50C46154602
:10118000002200210026078C4FF6FF6C07EA0C07AF
:101190000784828B018C4FF6FF7707EA04264FF60F
:1011A0000C773A404FF6FF7707EA03172F433A438D
:1011B000B64FB8420ED0B64FB8420BD0B0F1804F08
:1011C00008D0B44FB84205D0B34FB84202D0B34FA5
:1011D000B84206D14FF6FF57394046F4807739437D
:1011E00005E04FF2FF57394044F48077394382835A
:1011F0000184F0BD028B4FF2FF331A400283028B51
:101200004FF6FF7303EA01231A4302837047F0B5D8
:101210000C461546002200210026078C4FF6EF7C75
:1012200007EA0C070784028B018C4FF6FF7707EA69
:10123000041640F6FF473A404FF6FF7707EA0337B8
:101240003A434FF6FF7707EA05273A438F4FB842F4
:101250000ED08F4FB8420BD0B0F1804F08D08D4FD9
:10126000B84205D08C4FB84202D08C4FB84206D15C
:101270004FF6DF77394046F01007394305E04FF667
:101280005F77394044F01007394302830184F0BD91
:10129000028B4FF6F3731A400283028B0A430283D8
:1012A0007047F0B50C46154600220021068C4FF61B
:1012B000FE773E400684028B018C4FF60C7632405E
:1012C0007E1C06EA03162E433243704EB0420ED007
:1012D0006F4EB0420BD0B0F1804F08D06D4EB0428F
:1012E00005D06D4EB04202D06C4EB04206D14FF6E2
:1012F000FD76314044F00106314305E04FF6F576C6
:10130000314044F00106314302830184F0BD70B5E1
:1013100005460C465D4885420ED05D4885420BD09F
:10132000B5F1804F08D05B48854205D05A488542C8
:1013300002D05A48854200D100E000BF208850B951
:101340002389A28861882846FFF7ABFFE1882846F9
:10135000FFF79EFF25E0208804280AD12389A28870
:1013600061882846FFF753FFE1882846FFF742FFD0
:1013700017E0208808280AD12389A2886188284696
:10138000FFF7FBFEE1882846FFF7EEFE09E0238920
:10139000A28861882846FFF7A6FEE1882846FFF765
:1013A00095FE70BD2DE9F04105460C46002601274B
:1013B000608808B9022600E00026A088012801D133
:1013C000022700E001272088A0B92389A28861882C
:1013D0002846FFF766FFE1882846FFF759FF238973
:1013E0003A4631462846FFF712FFE1882846FFF7C4
:1013F00001FF13E02389A28861882846FFF707FFD1
:10140000E1882846FFF7F6FE23893A46314628460A
:10141000FFF747FFE1882846FFF73AFFBDE8F08174
:101420000A884B881A438B881A43CB881A430B8946
:101430001A434B891A438B891A43A0F844207047FA
:101440004FF6FF71818000210180C18041800172CF
:1014500070470021018041808180C18001814181EC
:101460008181C181704700210180418001218180FB
:101470000021C1800181704700210180418081806D
:10148000C18001814181818170470000002C0140B1
:10149000003401400004004000080040000C0040FF
:1014A00021B1028842F00102028004E002884FF676
:1014B000FE731A400280704731B1B0F8442042F404
:1014C0000042A0F8442005E0B0F84420C2F30E0228
:1014D000A0F8442070471AB183890B43838102E04E
:1014E00083898B43838170478182704741EA02037D
:1014F000A0F8483070471AB183890B43838102E01A
:1015000083898B438381704701894FF6F8721140BC
:10151000018170470A46002101894FF68F731940F7
:1015200011430181704730B504460D4629462046D7
:10153000FFF7F0FF208940F00700208130BD2DE942
:10154000F04104460D4616461F46602D06D13B4627
:10155000012231462046FFF75AFE05E03B460122B4
:1015600031462046FFF79DFE29462046FFF7D2FF71
:10157000208940F007002081BDE8F08130B50C469D
:1015800000210189C9B24FF6FF7505EA032515430D
:1015900025432943018130BD2DE9F04105460E4622
:1015A00017469846002443463A4631462846FFF7F8
:1015B000E5FF2C894FF6F870044044F007044FF61D
:1015C0008F70044044F070042C81BDE8F081F0B5C8
:1015D00004460D4616461F463B46324629462046DF
:1015E000FFF7CCFF208940F480402081F0BD0185C9
:1015F000828270470A46002101884FF68F73194096
:10160000114301807047F0B50C4615461E46002177
:10161000002200230189028B038C4FF6F8773940B2
:1016200021434FF6FC473A4040F201173A434FF648
:10163000DD773B404FF6FF7707EA06172F433B4322
:10164000018102830384F0BD0A460021018B4FF61D
:101650008F7319401143018370470A460021018BA3
:1016600048F6FF7319404FF6FF7303EA022319434C
:10167000018370470A460021818B4FF68F73194012
:101680001143818370470A460021818B48F6FF731E
:1016900019404FF6FF7303EA022319438183704711
:1016A00021B1028842F08002028004E002884FF6F5
:1016B0007F731A400280704721B1828842F0040291
:1016C000828004E082884FF6FB731A408280704764
:1016D00021B1828842F00802828004E082884FF6BD
:1016E000F7731A408280704721B1828842F001026C
:1016F000828004E082884FF6FE731A408280704731
:101700000A460021018B4FF6F773194011430183FC
:1017100070470A460021018B4FF2FF7319404FF6C4
:10172000FF7303EA02231943018370470A4600212D
:10173000818B4FF6F77319401143818370470A4636
:101740000021818B4FF2FF7319404FF6FF7303EABC
:1017500002231943818370470A460021018B4FF60B
:10176000FB7319401143018370470A460021018B26
:101770004FF6FF3319404FF6FF7303EA0223194374
:10178000018370470A460021818B4FF6FB73194095
:101790001143818370470A460021818B4FF6FF3346
:1017A00019404FF6FF7303EA022319438183704700
:1017B0000A460021018B4FF67F73194011430183C4
:1017C00070470A460021018BC1F30E014FF6FF73EB
:1017D00003EA02231943018370470A460021818BE3
:1017E0004FF67F7319401143818370470A460021E9
:1017F000818BC1F30E014FF6FF7303EA02231943F5
:10180000818370470A460021018C4FF6FD73194011
:101810001143018470470A460021018C4FF6F7738B
:1018200019401143018470470A460021018C4FF68C
:10183000DF7319404FF6FF7303EA02131943018463
:1018400070470A460021018C4FF67F7319404FF60E
:10185000FF7303EA02131943018470470A4600210B
:10186000018C4FF6FF5319404FF6FF7303EA022332
:101870001943018470470A460021018C4FF2FF731F
:1018800019404FF6FF7303EA02231943018470479E
:101890000A460021018C4DF6FF7319404FF6FF7385
:1018A00003EA023319430184704730B50023012451
:1018B0008C40A3B2048C9C430484048C02FA01F58E
:1018C000ADB22C43048430BD30B5002304248C40D9
:1018D000A3B2048C9C430484048C02FA01F5ADB2DB
:1018E0002C43048430BD70B5034600200024184604
:1018F000183001258D40ACB21D8CA5431D8409B163
:10190000082909D100EB6100056825F07005056024
:101910000568154305600EE00D1FC5F34E0528440C
:10192000056825F4E045056005684FF6FF7606EA90
:1019300002263543056070BD21B1028842F00202E3
:10194000028004E002884FF6FD731A40028070475F
:1019500021B1028842F00402028004E002884FF6BE
:10196000FB731A400280704721B1828842F08002E6
:10197000828004E082884FF67F731A40828070472D
:1019800002884FF6F7731A40028002880A430280E9
:10199000704782884FF68F731A40828082880A438C
:1019A0008280704702894FF6F8731A4002810289DB
:1019B0000A430281704702894FF67F731A40028101
:1019C00002890A430281704781847047818570478C
:1019D000818670470187704781877047A0F8401063
:1019E000704702884FF6FF431A40028002880A437C
:1019F000028070470146888E70470146088F704705
:101A00000146888F70470146B1F840007047014693
:101A1000888C70470146088D704702460020138A63
:101A20000B400BB1012000E000207047CA43028246
:101A3000704730B50246002000230024158A05EACD
:101A40000103958905EA010413B10CB1012000E0FE
:101A5000002030BDCA430282704700F029F801F02F
:101A6000B2F800F0F4FC00F08AFA00F0BFFA00F0DF
:101A7000F2FE41F2883000F058F800F0E8FC01F086
:101A8000B0F901F0D7F941F61F4140F2E73001F01B
:101A900085FA00BFFEE7704700BFFEE700BFFEE724
:101AA00000BFFEE700BFFEE7704770477047704712
:101AB00010B56FF00400FEF796FC2E4800682E4922
:101AC000B0FBF1F02D4908700846007800EB4001AA
:101AD000C1EBC0104FF6FF7101EAC0002849088031
:101AE00010BD0146254A12784A434FF0E0235A615F
:101AF00000229A611A46126942F001021A6100BF7F
:101B00004FF0E022106900F001021AB100F48032B7
:101B1000002AF5D04FF0E022126922F001024FF0C6
:101B2000E0231A6100229A6170470146144A128824
:101B30004A434FF0E0235A6100229A611A46126923
:101B400042F001021A6100BF4FF0E022106900F07C
:101B500001021AB100F48032002AF5D04FF0E022E1
:101B6000126922F001024FF0E0231A6100229A610B
:101B7000704700000000002000127A0028000020BA
:101B80002A00002008B501210820FEF7F5FFC0203B
:101B9000ADF8000010208DF8030003208DF802003E
:101BA00069469048FEF72CFDC0218E48FEF7D5FD12
:101BB00008BD10B58B48006820F070408949086066
:101BC0000846006840F040500860012086490860DF
:101BD0008649C1F898010420FFF783FF002082495D
:101BE00008600420FFF77DFF00208049C1F89801BC
:101BF00010BD10B57B48006820F07040794908603E
:101C00000846006840F04050086000207649091FEF
:101C100008607649C1F89C010420FFF762FF0120AB
:101C20007149091F08607149C1F89C010420FFF740
:101C300058FF10BD10B500246A48006820F07040BD
:101C4000684908600846006840F0004008600120CC
:101C500065490860FFF745FF01206449C1F8980114
:101C6000FFF73FFF07E0601CC4B2FA2C03DDFFF76B
:101C7000C0FF012010BD5C48803800680028F2D108
:101C80005949091F086000BFF4E710B50020564904
:101C9000091F08605348006820F0704051490860EF
:101CA0000846006840F04050086000204F49C1F8E5
:101CB0009C010220FFF715FF01204B49091F086016
:101CC0000220FFF70EFF00204849C1F8980110BD1F
:101CD00010B500204449091F08604248006820F000
:101CE0007040404908600846006840F04050086075
:101CF00001203E49C1F89C010220FFF7F2FE0120BD
:101D00003949091F08600220FFF7EBFE0020374920
:101D1000C1F8980110BD70B504463248006820F043
:101D20007040304908600846006840F04050086044
:101D300000202D49091F086000251DE0E00918B1A9
:101D400001202949086002E0002027490860600658
:101D5000040E0220FFF7C5FE01202349091F086079
:101D60000220FFF7BEFE00202049C1F898010220A2
:101D7000FFF7B7FE681CC5B2082DDFDB70BD70B57C
:101D8000054600241748006820F070401549086097
:101D90000846006840F000400860002617E0002078
:101DA0001149091F08600220FFF79BFE01200F491F
:101DB000C1F898016006040E0B488038006808B12D
:101DC000601CC4B20120FFF78CFE701CC6B2082E46
:101DD000E5DB15B9FFF77CFF01E0FFF756FF204672
:101DE00070BD0000000C01409C8121420080214216
:101DF00010B5FFF7C7FE10BD70B504460026FFF70B
:101E0000D8FE2546E11704EB11610912A02202EB6E
:101E10004101C8B2FFF77FFFFFF70CFFE11704EBAA
:101E200011610912A4EB0121C8B2FFF774FFFFF79B
:101E300001FFFFF7BEFEA120FFF76DFFFFF7FAFEDF
:101E40000020FFF79CFF0646FFF7D3FE304670BD2B
:101E500070B504460E46FFF7ACFE2546E11704EBCD
:101E600011610912A02202EB4101C8B2FFF753FF32
:101E7000FFF7E0FEE11704EB11610912A4EB012169
:101E8000C8B2FFF748FFFFF7D5FE3046FFF743FF24
:101E9000FFF7D0FEFFF7ADFE0A20FFF746FE70BD4C
:101EA0002DE9F04105460E461746002409E0E20000
:101EB00026FA02F2D1B22A1990B2FFF7C9FF601CCC
:101EC000C4B2BC42F3DBBDE8F0812DE9F041074626
:101ED0000C460026002509E036023919491B491E27
:101EE00088B2FFF789FF0644681CC5B2A542F3DB40
:101EF0003046BDE8F08110B5FF20FFF77DFF0446B6
:101F0000552C01D1002010BD5521FF20FFF7A0FF67
:101F1000FF20FFF771FF0446552C01D10020F2E7A6
:101F20000120F0E770B506460C46154608E030463D
:101F3000721C96B2FFF760FF04F8010B681E85B2B1
:101F4000002DF4D170BD70B505460C46164606E06E
:101F500021782846FFF77CFF681C85B2641C301E80
:101F6000A6F101018EB2F3D170BD000001B502E00F
:101F70000098401E009000980028F9D108BD08B5CF
:101F800001210820FEF7F8FD40F60340ADF80000FF
:101F900001208DF8020048208DF803006946D848DA
:101FA000FEF72EFB40F60341D548FEF7D6FB08BDF1
:101FB00070B504460D4629462046FEF7B4FB98B995
:101FC00042F21070FFF7D2FF29462046FEF7ABFB26
:101FD00040B900BF29462046FEF7A5FB0128F9D0ED
:101FE000002070BD0120FCE70120FAE72DE9F04355
:101FF00089B04FF001080024A146002700252021C8
:1020000001A801F056F8FFF7F3FE202201A90020F5
:10201000FFF788FF55E14FF40061B948FFF7C8FFAB
:1020200070B942F21070FFF7A1FF02E04FF0010912
:1020300001274FF40061B248FFF7BAFF0028F5D03E
:102040004FF48061AE48FFF7B3FFC0B942F21070A1
:10205000FFF78CFF4FF48061A948FFF7A9FF30B963
:10206000012C01DA1F2000E0601EC4B2012700BF6E
:102070004FF48061A248FFF79BFF0028F8D00121B0
:102080009F48FFF795FF88B942F21070FFF76EFF87
:1020900001219B48FFF78CFF08B94FF0000800BFF3
:1020A00001219748FFF784FF0028F9D002219448C6
:1020B000FFF77EFFB0B942F21070FFF757FF022121
:1020C0008F48FFF775FF30B91E2C01DD002000E0BE
:1020D000601CC4B2012700BF02218948FFF768FFD6
:1020E0000028F9D0ADE04FF400618548FFF760FFAC
:1020F00080B942F21070FFF739FF4FF40061804859
:10210000FFF756FF00BF4FF400617D48FFF750FF17
:102110000028F8D04FF480617948FFF749FFE0B913
:1021200042F21070FFF722FF4FF480617448FFF70E
:102130003FFF50B901A8005DFF2801DD002002E04B
:1021400001A8005D401C01A9085500BF4FF4806143
:102150006B48FFF72DFF0028F8D001216848FFF7F2
:1021600027FF90B942F21070FFF700FF0121644889
:10217000FFF71EFF10B94FF00009012700BF012132
:102180005F48FFF715FF0028F9D002215C48FFF7F0
:102190000FFFD0B942F21070FFF7E8FE0221584855
:1021A000FFF706FF50B901A8005D002801DAFF2003
:1021B00002E001A8005D401E01A9085500BF0221F0
:1021C0004F48FFF7F5FE0028F9D0012F02D100F0AB
:1021D0003EF900272646E01704EB5070C010A4EB30
:1021E000C000C1B247A2002000F05AFA002526E044
:1021F00045A22946082000F053FA2646E01704EBD2
:102200005070C010A4EBC000201A421929461A20B1
:1022100000F03AFB3DA22946262000F041FAE017E3
:1022200004EB5070C010A4EBC000201A284401A990
:102230000A5C29462D2000F027FB681CC5B2082D3A
:10224000D6DBB9F1000F7FF44EAF012F02D100F0C1
:10225000FEF800272646E01704EB5070C010A4EBF0
:10226000C000C1B22AA2002000F01AFA002526E020
:1022700025A22946082000F013FA2646E01704EBB1
:102280005070C010A4EBC000201A421929461A2031
:1022900000F0FAFA1DA22946262000F001FAE01704
:1022A00004EB5070C010A4EBC000201A284401A910
:1022B0000A5C29462D2000F0E7FA681CC5B2082DFB
:1022C000D6DBB8F1000F7FF4A6AE9DF804001149EB
:1022D00008709DF80500104908709DF806000F4928
:1022E00008709DF807000E490870202201A90020FF
:1022F000FFF729FE00F0ABF809B0BDE8F08300005D
:10230000000C01402A00000045452800290000007B
:102310003E0000002C0000202D0000202E00002098
:102320002F00002010B5002107E04AF2104200BF44
:10233000131EA2F10102FBD1491C8142F5D310BD4D
:1023400010B5002106E0142200BF131EA2F1010205
:10235000FBD1491C8142F6D310BD70B50446254619
:102360004FF40041FA48FEF7FAF94FF48051F8486B
:10237000FEF7F5F90120FFF7E3FF00261EE005F068
:10238000800028B14FF40051F148FEF7E6F904E06F
:102390004FF40051EE48FEF7E2F94FF48051EC485B
:1023A000FEF7DBF90120FFF7CBFF4FF48051E8483F
:1023B000FEF7D5F96806050E701CC6B2082EDEDBE6
:1023C00070BD70B5044625464FF40041E048FEF765
:1023D000C4F94FF48051DE48FEF7C1F90120FFF740
:1023E000AFFF00261EE005F0800028B14FF4005139
:1023F000D748FEF7B2F904E04FF40051D448FEF795
:10240000AEF94FF48051D248FEF7A7F90120FFF74B
:1024100097FF4FF48051CE48FEF7A1F96806050EEC
:10242000701CC6B2082EDEDB70BD70B504460D46CA
:1024300005F1B001C8B2FFF790FF102141EA141076
:10244000FFF78BFF04F00F00FFF787FF70BD70B53B
:10245000002415E004F1B001C8B2FFF77EFF0120AF
:10246000FFF77BFF1020FFF778FF002504E0002036
:10247000FFF7A7FF681CC5B2802DF8DB601CC4B253
:10248000082CE7DB70BD70B504462546E11704EB68
:1024900011710911A4EB0111C8B2FFF75EFF2546C7
:1024A000E11704EB117109111031C8B2FFF755FFA4
:1024B00070BD10B504462020FFF74FFF2046FFF700
:1024C0004CFF10BD70B505460C462120FFF745FFB7
:1024D0002846FFF742FF2046FFF73FFF70BD70B56B
:1024E00005460C462220FFF738FF2846FFF735FF48
:1024F0002046FFF732FF70BD10B5044644F040009F
:10250000FFF72BFF10BD10B504468120FFF725FF14
:102510002046FFF722FF10BD10B504468D20FFF7BF
:102520001CFF44F01000FFF718FF10BD10B5044663
:1025300044F0A000FFF711FF10BD10B5044644F0B1
:10254000A400FFF70AFF10BD10B5044644F0A60032
:10255000FFF703FF10BD10B50446A820FFF7FDFEEE
:102560002046FFF7FAFE10BD10B5044644F0AE0059
:10257000FFF7F3FE10BD10B5044644F0B000FFF7BE
:10258000ECFE10BD10B5044644F0C000FFF7E5FEB8
:1025900010BD10B50446D320FFF7DFFE2046FFF73D
:1025A000DCFE10BD10B50446D520FFF7D6FE204650
:1025B000FFF7D3FE10BD10B50446D920FFF7CDFEBE
:1025C0002046FFF7CAFE10BD10B50446DA20FFF71B
:1025D000C4FE44F00200FFF7C0FE10BD10B5044673
:1025E000DB20FFF7BAFE2046FFF7B7FE10BD10B59F
:1025F000E320FFF7B2FE10BD2DE9F04707468846FD
:1026000014464FF000090025002644E0A05D203864
:1026100000F0FF09A05D0D2803D107F11000C7B23B
:1026200007E0A05D0A2804D1002708F1020000F0AD
:10263000FF08782F04DD002708F1020000F0FF08F2
:10264000A05D202825DB41463846FFF7EEFE002539
:1026500007E005EB09113F4A505CFFF7B2FE681C2A
:10266000C5B2082DF5DB08F10100C1B23846FFF70D
:10267000DCFE002508E005EB09110831354A505C05
:10268000FFF79FFE681CC5B2082DF4DB07F10800B8
:10269000C7B2701CC6B2A05D0028B7D1BDE8F087F4
:1026A0002DE9F0470446884615464FF000090026FC
:1026B000002720E0E85D203800F0FF097E2C04DDD3
:1026C000002408F1010000F0FF0841462046FFF712
:1026D000ACFE002609E009EB49011F4A02EB41016B
:1026E000885DFFF76EFE701CC6B2062EF3DBA01DE0
:1026F000C4B2781CC7B2E85D0028DBD1BDE8F08722
:102700002DE9F84F05468846164600240027A146C5
:102710000021304600F03EFD20D27E2D04DD002554
:1027200008F1010000F0FF0841462846FFF77DFE52
:10273000002406E008494E31085DFFF742FE601CA8
:10274000C4B2062CF6DBA81DC5B286F0004A06E02E
:10275000000C01407A45000852410008B24650463C
:1027600000F004FDC0B28DF801009DF801000A21BF
:1027700090FBF1F090FBF1F201FB1200C0B28DF87A
:1027800000009DF8010090FBF1F201FB1200C0B2C5
:102790008DF80100F849504600F09DFC834600F09A
:1027A000CCFC00B20A2190FBF1F201FB1200C0B296
:1027B0008DF80200F149504600F08DFC834600F090
:1027C000BCFC00B20A2190FBF1F201FB1200C0B286
:1027D0008DF803004FF0000938E07E2D04DD002560
:1027E00008F1010000F0FF0841462846FFF71DFEF2
:1027F000B9F1020F0CD1002405E0E149085DFFF7B3
:10280000E0FD601CC4B2062CF7DBA81DC5B219E0C0
:1028100017B91DF8070098B100240DE01DF8071046
:10282000103101EB4101D64A543A02EB4101085DF7
:10283000FFF7C7FD601CC4B2062CEFDBA81DC5B2B4
:10284000781CC7B209F1010000F0FF09B9F1050FCA
:10285000C3DBBDE8F88F70B50026002411E02146E7
:102860002220FFF7E2FD222507E03146761CC54A0B
:10287000505CFFF7A6FD681CC5B25E2DF5DB601C41
:10288000C4B2082CEBDB70BD2DE9F843064689463F
:10289000904600240027B8F1000F1BDA7E2E04DDDD
:1028A000002609F1010000F0FF0949463046FFF714
:1028B000BCFD002406E0B249891F085DFFF781FDD9
:1028C000601CC4B2062CF6DBB01DC6B2C8F1000015
:1028D00085B201E01FFA88F54FF47A7095FBF0F0AD
:1028E0000A2190FBF1F201FB1200C0B28DF800004A
:1028F000642095FBF0F090FBF1F201FB1200C0B2F6
:102900008DF801000A2095FBF0F090FBF1F201FB3D
:102910001200C0B28DF802000A2095FBF0F100FB16
:102920001150C0B28DF80300002725E07E2E04DD93
:10293000002609F1010000F0FF0949463046FFF783
:1029400074FD1DF8070008B9032F13D100240DE012
:102950001DF80710103101EB4101894A543A02EB8E
:102960004101085DFFF72DFD601CC4B2062CEFDBB2
:10297000B01DC6B2781CC7B2042FD7DBBDE8F88300
:102980002DE9F04781460E4617460024A04659E03F
:1029900017F8080004EB04117B4A12F81110884262
:1029A0004ED1B9F1700F03DD4FF00009B01CC6B273
:1029B000062E04DD4FF000090026FFF748FD08F160
:1029C0000100385C04EB04116F4A02EB41014978C5
:1029D000884232D131464846FFF727FD00250AE0FC
:1029E00004EB0411684A02EB4101891C485DFFF7C2
:1029F000E8FC681CC5B2102DF2DB701CC1B2484661
:102A0000FFF713FD00250CE004EB04115E4A02EB16
:102A10004101891C05F11002885CFFF7D2FC681C9B
:102A2000C5B2102DF0DB08F1020000F0FF08002411
:102A300009F1100000F0FF0904E0601CC4B201E0DD
:102A4000601CC4B217F808000028A1D1BDE8F087C7
:102A5000F8B506460F461446002521E0605D7F2844
:102A60001EDD605D8DF80000681C205C8DF80100A3
:102A700000208DF80200702E02DD0026B81CC7B2BF
:102A8000062F03DD00260027FFF7E1FC6A463946E2
:102A90003046FFF775FF06F11000C6B2A81CC5B29C
:102AA000605D0028DAD1F8BD2DE9FC4106460F46ED
:102AB000144600208DF805000A20B4FBF0F100FB5D
:102AC000114030308DF804000A20B4FBF0F00A21E8
:102AD000B0FBF1F201FB120030308DF803006420EE
:102AE000B4FBF0F0B0FBF1F201FB120030308DF8D6
:102AF00002004FF47A70B4FBF0F0B0FBF1F201FB8E
:102B0000120030308DF8010042F21070B4FBF0F08A
:102B1000B0FBF1F201FB120030308DF8000000250F
:102B20000AE01DF80500302803D120200DF805002B
:102B300000E003E0681CC5B2042DF2DB00BF6A466A
:102B400039463046FFF7ACFDBDE8FC810FB4F8B55F
:102B500006460C4609A800900C48009A089900F017
:102B6000EFFD00200090094800F0AEFA022101FBC1
:102B70000400C7B23D4613E0000020410000C842F7
:102B8000A64100089A430008204000083C030020AA
:102B90002020022101FB1451394A5054681CC5B24F
:102BA0003848805DA842F3DC0020022101FB14516B
:102BB000334A505421463046FFF71EFD31488755B1
:102BC000F8BC5DF814FB08B501210820FDF7D4FF1F
:102BD0004FF47040ADF8000001208DF80200102085
:102BE0008DF8030069462848FDF70AFD4FF480512F
:102BF0002548FDF7B2FD4FF480412348FDF7AFFDB6
:102C0000C820FFF78FFB4FF480411F48FDF7A5FD5B
:102C10000020FFF7A9FC8020FFF7C4FC3F20FFF74E
:102C20009AFC0020FFF7B5FC0020FFF765FC0420AC
:102C3000FFF772FC0220FFF73CFC0120FFF776FC57
:102C40000820FFF79FFC1020FFF7BEFCCF20FFF706
:102C50005AFCF120FFF7AFFC4020FFF7BFFC00203B
:102C6000FFF76BFC0020FFF76FFC0120FFF77CFCF7
:102C7000FFF7EDFB00210846FFF7D7FB08BD00007A
:102C80003C03002030030020000C014010B56648D2
:102C9000006820F47000644908600846006840F449
:102CA000401008600020614908601420FEF73DFFD5
:102CB00001205F49C1F894011E20FEF712FF10BDEC
:102CC00010B500245848006820F470005649086088
:102CD0000846006840F40000086004E0601CC4B2CC
:102CE0000120FEF7FEFE51488038006808B1642CD0
:102CF000F4DB642C01DB012010BD002404E0601C27
:102D0000C4B20120FEF7EDFE48488038006808B9DB
:102D1000642CF4DB642C01DB0120EDE70020EBE701
:102D200010B5002404E0601CC4B20120FEF7D9FEF7
:102D30003E488038006808B1642CF4DB002404E0CD
:102D4000601CC4B20120FEF7CCFE38488038006811
:102D500008B9642CF4DB2820FEF7C3FE3348803822
:102D6000006808B1012010BD0020FCE770B5002408
:102D7000002506E06006040EFFF7D2FF0443681C3E
:102D8000C5B2082DF6DB204670BD7CB505460E4663
:102D9000FFF77CFFFFF794FFF8B9002405E0FFF789
:102DA000E5FF0DF80400601CC4B2052CF7DB9DF8AC
:102DB00000009DF8011008449DF8021008449DF899
:102DC000031008449DF80410884208D19DF80000C3
:102DD00030709DF80200287001E001207CBD0020C9
:102DE000FCE708B501210820FDF7C6FE4FF4487046
:102DF000ADF8000010208DF8030003208DF80200CC
:102E000069460948FDF7FCFB4FF400710648FDF7E1
:102E1000A4FC4FF490710448FDF7A1FCFFF736FFC6
:102E2000FFF74EFF08BD0000000C014094812142D5
:102E3000008021420EB501210846FDF79DFE0B21C1
:102E40000120FDF7F3FC0A210120FDF7EFFC012131
:102E50000846FDF7EBFC00210120FDF7E7FC4FF4ED
:102E60000060019001208DF80A0000208DF8080014
:102E70000C208DF8090001A8FDF7E2FA4FF48060FC
:102E8000019001208DF80A0000208DF808000C2028
:102E90008DF8090001A8FDF7D3FA02200190012066
:102EA0008DF80A0000208DF808000C208DF809002C
:102EB00001A8FDF7C5FA012001908DF80A00002055
:102EC0008DF808000C208DF8090001A8FDF7B8FA6C
:102ED00028208DF8000001208DF8030000208DF8D7
:102EE00001008DF802006846FDF733FA07208DF8DF
:102EF000000001208DF8030000208DF801008DF8FE
:102F000002006846FDF725FA06208DF80000012032
:102F10008DF8030000208DF801008DF8020068464E
:102F2000FDF717FA0EBD10B50A20FEF7FEFD0221CF
:102F30001748FFF73DF808B9FFF789FA0220FDF7B7
:102F4000F6FA10BD10B50A20FEF7EFFD012110487A
:102F5000FFF72EF820B90FA204210A20FFF778FD11
:102F60000120FDF7E4FA10BD10B50A20FEF7DDFDE3
:102F70004FF480610648FFF71BF820B905A2042131
:102F80000A20FFF765FD4FF48060FDF7D0FA10BD11
:102F9000000C0140C1F5CEC4BABD00007FB50546A6
:102FA0000C4601210220FDF7F4FDADF80850ADF804
:102FB00004400020ADF80A00ADF8060001A92F4832
:102FC000FDF712FF012211462C48FEF784FA1D205E
:102FD0008DF8000000208DF8010003208DF802001C
:102FE00001208DF803006846FDF7B3F9012123485D
:102FF000FEF756FA7FBD10B501212048FEF719FDF6
:1030000000283AD001211D48FEF724FD1C491D4827
:10301000FFF7BBFE1CA202210A20FFF719FD1CA22C
:1030200000210A20FFF714FD164803781AA2002198
:103030002D20FFF78BFD1248037817A202212D20C7
:10304000FFF784FD0F4800781449097888420ADBAD
:103050004FF480711248FDF780FB4FF40071104867
:10306000FDF77DFB09E04FF480710D48FDF777FB1C
:103070004FF400710A48FDF770FB10BD00040040DA
:103080003A03002039030020CAAAB6C80000000095
:10309000CEC2B6C8000000003A2564002C00002013
:1030A000000C0140D2B201E000F8012B491EFBD216
:1030B00070470022F6E710B513460A460446194643
:1030C000FFF7F0FF204610BD421C10F8011B00293D
:1030D000FBD1801A704780EA010210B502F000436C
:1030E000400022D04A001FD0010E01EB1261C0F354
:1030F0005600C2F3560240F4000042F40002A0FB66
:10310000022000047F39140400D0401C50EA124011
:1031100001D44000491EC2B20C0604EBD010401C82
:103120004008802A02D003E0002010BD20F00100FA
:10313000002900DA0020184310BD00F0004220F002
:103140000040C10DC0F3160040F400007F2901DAF1
:1031500000207047962903DCC1F19601C84001E0C8
:1031600096398840002AF4D04042704720F0004051
:10317000C10DC0F3160040F400007F2901DA0020E1
:103180007047962903DCC1F19601C8407047963913
:1031900088407047002801DBC0F10040002901DBB6
:1031A000C1F100418142704730B50B460146002015
:1031B0002022012409E021FA02F59D4205D303FAF9
:1031C00002F5491B04FA02F52844151EA2F101027A
:1031D000F1DC30BD2DE9F05F0546002092469B46AC
:1031E00088460646814640241BE02846414647461D
:1031F000224600F0FAF953465A46C01A914110D3BC
:1032000011461846224600F0E1F92D1A67EB010835
:103210004F4622460120002100F0D8F917EB0009A3
:103220004E41201EA4F10104DFDC484631462A4607
:103230004346BDE8F09F2DE9FE4F804681EA03003A
:10324000C00F0C46009021F0004123F00045B8EB80
:103250000200A94105D24046214690461C460B4635
:10326000024623F00040104347D0270DC7F30A0061
:10327000C3F30A510290401A019040286BDAC3F35D
:10328000130040F4801B0098924620B10023D2EB3B
:10329000030A63EB0B0B01985946C0F140025046FC
:1032A00000F094F906460D4650465946019A00F042
:1032B000ACF910EB08006141002487EA115284EA5E
:1032C000E7731A4340D0009A62B3019A012A4FEA89
:1032D000075215DC001B61EB02014FF0004202EACD
:1032E0000752CDE90042001C41F5801132462B46C1
:1032F00000F0ACF903B0BDE8F08F40462146F9E795
:10330000001B61EB0201001C41F5801300185B41BA
:103310002018A2F5001747EB030140EAD570B61953
:103320006D4111E06D084FEA360645EAC0754FEA77
:103330000752001B61EB0201001C41F58011490896
:103340004FEA30000019514132462B4603B0BDE828
:10335000F04F00F06CB90098012240000023D0EB40
:10336000020263EBE073009821464FEAE074B8EB89
:10337000000061EB0401E9E783F000435BE781F0C3
:10338000004158E72DE9FE4F81EA030404F00044B0
:1033900021F0004100944FF0000B23F0004350EA6D
:1033A00001045ED052EA03045BD0C3F30A54C1F3B4
:1033B0000A552C44A4F2F3340194A0FB0254C1F347
:1033C000130141F48011C3F3130343F4801301FB91
:1033D000024400FB034E840A970A44EA815447EAF8
:1033E0008357A4FB076802958D0A05FB07854FEA02
:1033F000932C04FB0C542705029D4FEA065847EA1C
:103400001637B5EB08056EEB070C870E920E47EAF0
:10341000811742EA8312A7FB0201B6EB0B0164EBB2
:1034200000042B0D43EA0C335E1844EB1C50DA46C3
:103430005146E7FB0201C5F313044FEA0B3343EA9D
:1034400014534FEA0432019C43EA0603A4F10C042E
:103450000294009CCDE900B400F0F8F803B0BDE898
:10346000F08F00200146F9E72DE9F04D81EA0304D1
:1034700004F0004B21F0004514464FF0000A23F001
:10348000004150EA050220D054EA01021DD0C5F3E4
:103490000A570246C5F31303C1F31300C1F30A56DA
:1034A00040F4801543F48013A7EB0608101BD646A2
:1034B00008F2FD3873EB050002D308F1010801E0C2
:1034C00092185B41B8F1000F03DA00200146BDE815
:1034D000F08D00204FF48011064684460EE0171B45
:1034E00073EB050705D3121B63EB050306434CEA98
:1034F000010C49084FEA300092185B4150EA01077D
:10350000EDD152EA030012D082EA040083EA0501F9
:10351000084305D0101BAB4106D20122002306E070
:1035200000224FF0004302E06FF0010253101AEB4B
:1035300006004CEB085110EB0A0041EB0B01BDE813
:10354000F04D00F074B8C1F30A52C1F3130140F218
:10355000FF3341F480119A4202DA0020014670479D
:1035600040F233439A42A2F2334202DC524200F06C
:103570003CB800F02BB8000030B5041E71F1000417
:1035800004DB4FF00044404264EB0101141E73F170
:10359000000405DB1C464FF00043524263EB04037A
:1035A000994208BF904230BD064C074D06E0E068E6
:1035B00040F0010394E8070098471034AC42F6D37A
:1035C000FCF7BAFD744B0008944B0008202A04DB7A
:1035D000203A00FA02F1002070479140C2F1200326
:1035E00020FA03F3194390407047202A04DB203A65
:1035F00021FA02F00021704721FA02F3D040C2F113
:1036000020029140084319467047202A06DBCB1759
:10361000203A41FA02F043EAE07306E041FA02F38D
:10362000D040C2F12002914008431946704710B5BE
:10363000141E73F1000408DA401C41F100019218D5
:103640005B411A4301D120F0010010BD2DE9F04D7E
:1036500092469B4611B1B1FA81F202E0B0FA80F2D3
:1036600020329046FFF7B2FF04460F4640EA0A00B8
:1036700041EA0B0153465A46084313D0114653EA18
:10368000010019D0C8F140025046FFF7AEFF0546D1
:103690000E46504659464246FFF798FF084305D06C
:1036A000012004E020463946BDE8F08D00200543A6
:1036B00046EAE0762C4337430A986305E40AA0EB18
:1036C00008000022FD0A44EA47540A3002D50020CF
:1036D0000146E9E7010510196941DDE908450019CE
:1036E0006941BDE8F04DA2E770B58C1810F8015B98
:1036F00015F0070301D110F8013B2A1106D110F88B
:10370000012B03E010F8016B01F8016B5B1EF9D18E
:103710002B0705D40023521E0DD401F8013BFAE714
:1037200010F8013BCB1A921C03E013F8015B01F87F
:10373000015B521EF9D5A142D8D3002070BD000014
:1037400037B514460846064B6A46214600F0CCF8C9
:1037500004466946002000F05EFC20463EBD0000A5
:103760001740000802E008C8121F08C1002AFAD159
:1037700070477047002001E001C1121F002AFBD1F1
:10378000704700002DE9FF5FDDE90220010DDDF843
:1037900038B0024318D044F61050A1F2FF31414333
:1037A0000D140F98012820D0A5EB0B00401C5FEAF8
:1037B000000A4FF00004474EDFF81C91A046504627
:1037C00016D5CAF1000728E00F98012443A201286A
:1037D00008D0002100980F9BC0E90021C0E90243F6
:1037E000BDE8FF9F6FEA0B01F4E7CBF10000DEE7D5
:1037F000074612E0F80707D02246334640464946BE
:10380000FFF7C0FD804689462246334610461946DA
:10381000FFF7B8FD04460E467F10002FEAD1DDE920
:103820000201BAF1000F42464B4602DAFFF7AAFD49
:1038300001E0FFF719FE04460E460022284BFFF771
:103840009BFE03D84FF0FF30014607E00022254BD6
:1038500020463146FFF7EFFCFFF775FE102409E024
:10386000002C0ADB0A220023FFF7B4FC019B303254
:103870001A55641E50EA0102F2D1641C019AC4F187
:10388000110314440F9A012A03D0012208430DD1D9
:103890000AE0084304D000204FF0110B0F9080E79E
:1038A000A3EB0B056D1E0DE05B4504DD4FF0000240
:1038B00005F1010504E003DA4FF00002A5F101056E
:1038C000002AECD000980F99C0E90231C0E9004508
:1038D00086E70000000024400000F03F30000000B8
:1038E0000000F0430000E03F2DE9FF4F95B09B46FC
:1038F0008946064600250FE2252877D10024274671
:10390000F84A0121059400E0044316F8013F203BEA
:1039100001FA03F01042F7D130782A2811D06FF065
:103920002F033078A0F13002092A16D8059A44F006
:10393000020402EB820203EB42021044761C059063
:10394000EFE759F8042B0592002A03DA504244F4B9
:103950000054059044F00204761C30782E2816D1CD
:1039600016F8010F44F004042A280DD06FF02F023E
:103970003078A0F13003092B09D807EB870302EB5D
:103980004303C718761CF3E759F8047B761C30789C
:103990006C280FD006DC4C2817D068280DD06A2878
:1039A00014D104E0742810D07A280FD10DE044F42B
:1039B00000140AE044F4801401E044F440147278E6
:1039C000824202D104F58014761C761C3078662879
:1039D0000BD013DC582877D009DC002875D0452897
:1039E000F6D04628F4D047281AD19DE118E0632884
:1039F00035D0642879D0652812D195E1702873D02C
:103A000008DC6728F1D069286FD06E280DD06F28A8
:103A100006D1B5E073282CD0752875D0782874D0DD
:103A20005A46179990476D1C75E1C4F3025002285D
:103A300009D003280DD0D9F8001004280DD00D604E
:103A400009F1040967E1D9F80010EA17C1E9005249
:103A5000F6E7D9F800100D80F2E70D70F0E719F8DD
:103A6000041B8DF8001000208DF80100EA460120AB
:103A700003E059F804AB4FF0FF3061074FF000014D
:103A800002D40DE008F101018846B9420FDA804501
:103A9000F8DB1AF808100029F4D108E008F1010158
:103AA00088468142FADB1AF808100029F6D10598F9
:103AB0005B46A0EB080721463846179A00F094FAB7
:103AC000284400EB080507E04DE029E10DE01AF875
:103AD000010B5A4617999047B8F10108F7D25B4697
:103AE00021463846179A13E142E00A220092C4F3B5
:103AF00002524FF0000A022A08D059F804CB032AD8
:103B00004FEAEC710AD00DE029E02AE009F1070143
:103B100021F00702F2E802C1914609E00FFA8CFC9D
:103B20004FEAEC71042A03D14FFA8CFC4FEAEC7196
:103B3000002907DA0A460021DCF1000C61EB0201E2
:103B40002D2202E0220504D52B228DF8042001222B
:103B500003E0E20701D02022F7E7904659E00A216E
:103B600002E010220DE010214FF0000A00910BE05E
:103B700010224FF0000A44F004040827009203E0EA
:103B800008224FF0000A0092C4F30252022A05D024
:103B900059F804CB0021032A08D009E009F10701F4
:103BA00021F00702F2E802C1914605E01FFA8CFC01
:103BB000042A01D10CF0FF0C4FF00008220728D591
:103BC000702806D0009B83F0100353EA0A0305D047
:103BD0000EE040228DF80420012208E05CEA010298
:103BE00006D030228DF804208DF805000222904680
:103BF000009B83F0080353EA0A030AD15CEA01023E
:103C000001D1620705D530228DF804204FF001085C
:103C10007F1E582804D034A003900EA802900DE017
:103C200036A0F9E753466046009AFFF7D3FA844678
:103C30000398825C0298401E029002705CEA0100C8
:103C4000F0D1029806A9081A00F1200A600702D5EF
:103C500024F4803400E00127574502DDA7EB0A0079
:103C600000E0002000EB0A01009005984144401A52
:103C70000590E00306D45B462146179A059800F0AC
:103C8000B3F90544002706E001A85A46C05D17991C
:103C900090476D1C7F1C4745F6DBE0030CD55B4667
:103CA0002146179A059800F09FF9054404E030205A
:103CB0005A46179990476D1C0099481E009000299C
:103CC000F5DC08E0029802995A460078491C0291F6
:103CD000179990476D1CBAF10001AAF1010AF1DCB5
:103CE00065E10000092801003031323334353637C0
:103CF0003839616263646566000000003031323338
:103D000034353637383941424344454600000000D7
:103D100000F058F90544761C307800287FF4ECADAB
:103D200019B02846BDE8F08F620700D4062709F1D4
:103D3000070222F0070CFCE80223E14603F00048EA
:103D40005FEA080C02D00FF2702C0DE05FEA045C11
:103D500002D50FF2682C07E05FEAC47C02D00FF2B4
:103D6000602C01E0AFF2700C4FF0FF3823F00043FD
:103D7000CDF850C065280CD006DC452809D046286F
:103D80001DD047283DD13DE0662818D067287ED158
:103D900038E00021112F01DB112000E0781CCDE973
:103DA000000106A90EA8FFF7EDFCDDE90F010E9A50
:103DB00003910021009207F1010A04914DE04FF0B8
:103DC00000400097CDE9011006A90EA8FFF7DAFC24
:103DD000DDE90F0203920E9B11990022DDF80CA081
:103DE0000093049211B9791C00EB010AB7EB0A00A9
:103DF00004D4C0F1FF3007F1010A0490AAEB0700D8
:103E0000019044E0012F00DA01270021112F01DD8C
:103E1000112000E03846CDE9000106A90EA8FFF701
:103E2000B1FCDDE90F010E9A03910021049100928B
:103E3000BA4621070CD40399514500DA8A46BAF1F3
:103E4000010F05DD009AAAF10101515C302908D06B
:103E5000B84202DA10F1040F06DA0121CDE90110AF
:103E600015E0AAF10101E9E7002805DC0499014405
:103E70000491AAEB000102E0411C514500DD8A4695
:103E80000499401A401C01904FF000400290200716
:103E900004D40198504501DBCDF8048000208DF852
:103EA0004F0002980DF14F07B0F1004F25D02B20A5
:103EB0000E9002984FF0020800280CDA404202905F
:103EC0002D200E9007E00A210298FFF76DF930319E
:103ED000029007F8011DB8F10001A8F10108F2DC19
:103EE00002980028EFD1791E0E980870307800F003
:103EF000200040F0450007F8020D12A8C01B00F199
:103F000007081498007800B1012000EB0A0101981D
:103F100001EBE07105984144401A401E0590E00312
:103F200006D45B462146179A059800F05DF80544D3
:103F30001498007818B15A46179990476D1CE00301
:103F400024D55B462146179A059800F04DF80544A4
:103F50001CE00498002807DBDDE90301884203DD4B
:103F60000098405C179901E0179930205A46904715
:103F7000049805F10105401C04900198401E019031
:103F800004D12E205A46179990476D1CBAF10001B2
:103F9000AAF1010ADDDC05E017F8010B5A46179972
:103FA00090476D1CB8F10001A8F10108F4DC5B46F4
:103FB0002146179A0598ABE62D0000002B00000063
:103FC000200000002DE9F041044600251E4617465A
:103FD000880404D405E039462020B0476D1C641ED7
:103FE000F9D52846BDE8F0812DE9F04104460025C9
:103FF0001E469046C80301D5302700E020278804DC
:1040000004D505E041463846B0476D1C641EF9D51D
:104010002846BDE8F0810A68531C0B601070704799
:10402000C1F5082848890E8878080800F80000FFC4
:104030000000402010090619600000000F40807F3A
:104040000000CEC408080838C808090E0808C83897
:10405000080808008080404020110A040A1120400E
:1040600040808000BABD80FC96E584FC0008C84909
:104070004AC808080000807F024C807F80601F00D3
:10408000003F40407800D1EE1010D0FF9010004269
:10409000E2524AC64240C000040300FF0023108CD5
:1040A0004320184780403F00B4CA404042CC001033
:1040B00092929292921202FE00000000007F201065
:1040C0000F0808080F40807F0000BBDB222AAAFFF0
:1040D000AAAAA280A2AAAAFFAA2A22008060080A8D
:1040E0006A8A8A9AAA8A8ACA0F20C000CEC2106041
:1040F000028C0000FE9292929292FE000000040454
:104100007E01407E42427E427E42427E4000B6C8F0
:104110000000FC242424FC252624FC242424040060
:1041200040308F80844C55252525554C808080005B
:10413000CAAA1060028C00FE929292929292FE00A5
:10414000000004047E014448507F40407F504844B2
:1041500040000000000000000000002F00000000F0
:104160000700070000147F147F1400242A7F2A12FE
:1041700000626408132300364955225000000503ED
:10418000000000001C224100000041221C0000141D
:10419000083E08140008083E0808000000A060005F
:1041A00000080808080800006060000000201008EF
:1041B0000402003E5149453E0000427F400000425B
:1041C00061514946002141454B31001814127F10BE
:1041D000002745454539003C4A49493000017109ED
:1041E000050300364949493600064949291E0000A1
:1041F0003636000000005636000000081422410048
:104200000014141414140000412214080002015177
:10421000090600324959513E007C1211127C007F80
:1042200049494936003E41414122007F4141221C1B
:10423000007F49494941007F09090901003E414980
:10424000497A007F0808087F0000417F4100002074
:1042500040413F01007F08142241007F4040404020
:10426000007F020C027F007F0408107F003E414166
:10427000413E007F09090906003E4151215E007F51
:10428000091929460046494949310001017F0101C8
:10429000003F4040403F001F2040201F003F40386B
:1042A000403F0063140814630007087008070061AA
:1042B0005149454300007F41410000552A552A5588
:1042C000000041417F000004020102040040404020
:1042D0004040000001020400002054545478007F44
:1042E0004844443800384444442000384444487F1B
:1042F00000385454541800087E0901020018A4A480
:10430000A47C007F080404780000447D4000004045
:1043100080847D00007F102844000000417F400021
:10432000007C04180478007C0804047800384444B5
:10433000443800FC242424180018242418FC007C91
:104340000804040800485454542000043F4440200A
:10435000003C4040207C001C2040201C003C4030A1
:10436000403C004428102844001CA0A0A07C00442D
:1043700064544C441414141414140242A25A925754
:1043800032023A5792523202020004442215044586
:10439000857D050504152142020000000000000093
:1043A0000000000080C04060301018080C0C0406AB
:1043B00086E2E30303010101010101030323E22675
:1043C00006040C0C081810306040C080000000008B
:1043D00000000000000000000000C0E0380C0603F0
:1043E0000100000C181880C0E0E0F0F0F8F9FCFCC7
:1043F000FCFCFCFCFCFCFCFCFCFCF8F8F8F0E0E04D
:10440000C08000181808000103060C3860C00000C6
:10441000000000E07C0F0100000C1C1E04C0F0F83E
:10442000FEFFFFFF7F7F3F3F1F1F0F0F07070303A5
:104430000101DF8F07070303010100FFFFFFFFFEFC
:10444000FCF0C000001C1C1C08010F7CE000FF07F2
:104450000000000000000000FEFFFFFFFFFFFFFE66
:10446000FE7E7E3E3E1E1E0C0C0404000200010077
:104470000000000008F8E0EFFFFFFFFFFFFFFFFF75
:10448000000000000000000007FF0F7EE0000008B1
:1044900000000000073FFFFFFFFFFDFCFEFEFEFEE9
:1044A000FEFEFEFEFEFEFCFCF8F8F0E0E080000000
:1044B00000FFFFFFFFFFFFFFFFFF3F0F00000000B7
:1044C000000000E07E0F0000030F3860C001000014
:1044D0001000C001070F1F3F3F7FFFFFFFFFFFFFDF
:1044E000DFFFEFCFFFCFFFFFFFFFFFFCF8FF7F3FB6
:1044F0003F1F0F0703004010040401C060380F0382
:1045000000000000000000000103060C18302060CD
:10451000C180840000001000010101230303030394
:10452000430303430301210100000000008082C215
:10453000602030180C06030100000000000000009D
:104540000000000000000000000000000000010169
:104550000303020606040C0C0C0808080808080CE3
:104560000C0C040606020303010100000000000019
:10457000000000000000000000000000000000003B
:1045800000000000000000000000000000F8000033
:104590000000000000333000000000100C06100C7A
:1045A0000600000000000000000040C07840C07815
:1045B0004000043F04043F040400007088FC0830FD
:1045C0000000001820FF211E0000F008F000E01895
:1045D000000000211C031E211E0000F0088870004E
:1045E00000001E2123241927211010160E000000A0
:1045F00000000000000000000000000000E01804BF
:104600000200000000071820400000020418E0002B
:1046100000000040201807000000404080F080406B
:1046200040000202010F01020200000000F0000041
:1046300000000101011F0101010000000000000055
:10464000000080B0700000000000000000000000CA
:104650000000000101010101010100000000000053
:10466000000000303000000000000000000080600A
:104670001804006018060100000000E0100808108F
:10468000E000000F102020100F00001010F80000B4
:1046900000000020203F202000000070080808884B
:1046A000700000302824222130000030088888481B
:1046B00030000018202020110E000000C02010F84B
:1046C000000000070424243F240000F8088888081C
:1046D00008000019212020110E0000E01088881821
:1046E0000000000F112020110E0000380808C83803
:1046F00008000000003F00000000007088080888E3
:104700007000001C222121221C0000E0100808106B
:10471000E0000000312222110F00000000C0C000A4
:1047200000000000003030000000000000800000A9
:1047300000000000806000000000000080402010A9
:1047400008000001020408102000404040404040A2
:104750004000040404040404040000081020408005
:10476000000000201008040201000070480808083A
:10477000F0000000003036010000C030C828E8100A
:10478000E0000718272423140B000000C038E000C5
:104790000000203C23020227382008F8888888700F
:1047A0000000203F202020110E00C030080808081B
:1047B0003800071820202010080008F80808081002
:1047C000E000203F202020100F0008F88888E8082B
:1047D0001000203F20202320180008F88888E808CF
:1047E0001000203F200003000000C03008080838F7
:1047F000000007182020221E020008F80800000808
:10480000F808203F210101213F20000808F808088E
:1048100000000020203F2020000000000808F808C9
:104820000800C08080807F00000008F888C0281839
:104830000800203F20012638200008F8080000006A
:104840000000203F20202020300008F8F800F8F871
:104850000800203F003F003F200008F830C000085B
:10486000F808203F200007183F00E0100808081053
:10487000E0000F10202020100F0008F8080808089A
:10488000F000203F210101010000E010080808109D
:10489000E0000F18242438504F0008F888888888D2
:1048A0007000203F2000030C3020007088080808AA
:1048B00038000038202121221C00180808F80808B8
:1048C00018000000203F2000000008F80800000841
:1048D000F808001F202020201F000878880000C84A
:1048E0003808000007380E010000F80800F800083A
:1048F000F800033C0700073C030008186880806844
:10490000180820302C03032C30200838C800C83881
:1049100008000000203F2000000010080808C838E8
:1049200008002038262120201800000000FE020286
:1049300002000000007F40404000000C30C000003A
:104940000000000000010638C00000020202FE0064
:104950000000004040407F0000000000040202020E
:104960000400000000000000000000000000000043
:10497000000080808080808080800002020400002F
:104980000000000000000000000000008080808027
:1049900000000019242222223F2008F80080800015
:1049A0000000003F112020110E00000000808080D8
:1049B0000000000E112020201100000000808088DF
:1049C000F800000E112020103F2000008080808021
:1049D0000000001F222222221300008080F088881D
:1049E00088180020203F2020000000008080808068
:1049F0008000006B94949493600008F8008080809D
:104A00000000203F210000203F20008098980000F7
:104A100000000020203F2020000000000080989827
:104A2000000000C08080807F000008F800008080C7
:104A30008000203F24022D302000000808F80000EC
:104A400000000020203F20200000808080808080A7
:104A50008000203F20003F20003F80800080808039
:104A60000000203F210000203F2000008080808047
:104A70000000001F202020201F0080800080800078
:104A8000000080FFA12020110E0000000080808027
:104A90008000000E112020A0FF8080808000808098
:104AA000800020203F2120000100000080808080C5
:104AB00080000033242424241900008080E08080BA
:104AC00000000000001F2020000080800000008007
:104AD0008000001F202020103F2080808000008068
:104AE000808000010E300806010080800080008078
:104AF00080800F300C030C300F000080800080801D
:104B000080000020312E0E31200080808000008047
:104B1000808080818E7018060100008080808080F7
:104B200080000021302C2221300000000000807C19
:104B3000020200000000003F404000000000FF00B3
:104B4000000000000000FF0000000002027C800066
:104B500000000040403F000000000006010102028A
:104B6000040400000000000000003031323334350E
:104B700036373839944B0008000000203C03000011
:104B8000E8360008744D00083C030020840400004F
:104B9000743700081184A24A04680901020304065C
:104BA0000708090C6910051A02040608180E80800F
:104BB000C0C0C06060603030303818012A0C01ADD0
:104BC0000E0E0E06013B0E0E172A1C21192908098C
:104BD00018706060E0C0C0808055080E11C0E070A1
:104BE00030381C0C06070303010174493B1F808009
:104BF000F0F8F8F00C180880E0F0F8FC3C1C622D8E
:104C0000FCF8F0E01D980FC0C0C101030307060EB9
:104C10000C183870606C380EC0F0781E07333138CD
:104C200078FCFEF6C016198A11180CF8FCDE0E0F7F
:104C30001EBEFCF006FF0118130307FFFFFE801ED7
:104C40003FFFFFF9F9FFFF7F1F0E7F152FC180CEB9
:104C5000CEC6C01F18093F80FCFCFD7D01C07C1240
:104C600070195B19462E01070E3CF87974FEFF039C
:104C7000181001030F1F7FFEFCF0F0F07F7F3E1045
:104C8000030E1F1F0F0F0304070112061905180D4D
:104C90000F1E3F7F7F7F79733F3F1F0E2D1A031733
:104CA000180E0E0F0F1F3F3D080C1F1F1F193C1D34
:104CB0007009F3F0FCFE3F1F070114CFFF70A6033D
:104CC0001F7EF0C03C0303011E1CC0C04001180839
:104CD000F87840C04058580A51399A411D60F0E0B8
:104CE0002001D630303818104A013E392D5DE0F8E9
:104CF0003F0F555809070E1C383060E0C03F11388F
:104D0000154060607030180C0711083F7D66E7E3BE
:104D1000C0C0C0E0607D19EC2A60011C7F7F61018A
:104D200029069DE1E0E0C0A0111A802C1B70383CE0
:104D30007A036A997E180E030306060C0C181838BD
:104D40003030706071290119B61A810469BC39C705
:104D500059013920196F080C1130303018181C0C0B
:104D60000E06070357011E19F3290119BC990159B1
:044D700015012E00FB
:0400000508000131BD
:00000001FF
